S01A000052544F535F4C4142315F41544D45474133322E73726563F0
S11300000C942A000C9447000C9447000C9447006D
S11300100C9447000C9447000C9447000C949002F5
S11300200C9447000C9447000C9447000C94470030
S11300300C9447000C9447000C9447000C94470020
S11300400C9447000C9447000C9447000C94470010
S11300500C94470011241FBECFE5D8E0DEBFCDBF0E
S113006010E0A0E6B0E0EEE7FFE002C005900D92DC
S1130070A439B107D9F726E0A4E9B0E001C01D9284
S1130080A03EB207E1F70E94B4020C94BD070C94A1
S11300900000CF93DF93EC010E9446052091940069
S11300A030919500C9018C0F9D1F8C3D45E094074C
S11300B058F42817390758F4E901CA56DF4F9093CA
S11300C095008093940005C0C0E0D0E002C0C0E079
S11300D0D0E00E941A06CE01DF91CF9108950895D1
S11300E0C29889EF90E00197F1F700C00000C29A2E
S11300F08BED95E00197F1F700C000000895CF93D0
S1130100C82FC098C19888B38F7088BB88B39C2FC0
S1130110907F892B88BB0E94700088B38F7088BB46
S113012088B3C295C07FC82BC8BB0E947000CF9112
S113013008958FEF87BB84E088BB83E30E947F0030
S113014082E30E947F0088E20E947F008CE00E948C
S11301507F000895CF93C82FC09AC19888B38F7039
S113016088BB88B39C2F907F892B88BB0E9470002A
S113017088B38F7088BB88B3C295C07FC82BC8BBB7
S11301800E947000CF910895813049F028F08230A8
S113019049F0833051F00CC080E8860F0AC080EC2F
S11301A0860F07C080E8860F04C080E8860F01C070
S11301B080E80E947F00089581E00E947F000895F6
S11301C0CF93DF93EC018881882331F021960E943C
S11301D0AA0089918111FBCFDF91CF910895CF932C
S11301E0DF93EC01862F642F0E94C400CE010E948D
S11301F0E000DF91CF910895FC01039692838183FF
S11302002FEF3FEF348323839683858390878783FF
S113021010820895FC01118610860895CF93DF9310
S1130220FC01DB0121813281E9018A819B811396E2
S11302309C938E9312978181928115969C938E93B1
S113024014978A819B81EC017D836C83E9017B8314
S11302506A83728361831996FC93EE931897808165
S11302608F5F8083DF91CF910895CF93DF93EB016C
S1130270488159814F3F2FEF520731F4DC01179623
S1130280ED91FC91189717C0FC013396DC0115968B
S11302902D913C911697D9012D913C91421753070A
S11302A050F00280F381E02DA281B3812D913C9125
S11302B042175307B0F7A281B381BB83AA83159673
S11302C0DC93CE931497FD83EC83D383C283998705
S11302D08887FC0120812F5F2083DF91CF910895CF
S11302E0FC01A281B3818481958115969C938E93A0
S11302F01497A481B5818281938113969C938E93E4
S11303001297A085B18511968D919C911297E8174B
S1130310F90731F48481958112969C938E931197F9
S1130320118610868C9181508C93089531E1FC01E3
S11303303083319722E220833197A3E3A08331975E
S113034060833197708331971082319760E86083BE
S113035031971082319762E06083319763E0608364
S1130360319764E06083319765E06083319766E09C
S11303706083319767E06083319768E060833197E9
S113038069E06083319760E160833197308331970E
S113039032E13083319733E13083319734E1308374
S11303A0319735E13083319736E13083319737E146
S11303B03083319738E13083319739E13083319795
S11303C030E23083319731E23083319720833197A3
S11303D023E220833197408331975083319726E27B
S11303E02083319727E22083319728E220833197B5
S11303F029E22083319720E32083319721E320836E
S1130400869708951BBC8CE78ABD8BE08EBD89B7A7
S1130410806189BFA091D506B091D606CD91CDBF9C
S1130420DD91DEBFFF91EF91DF91CF91BF91AF914D
S11304309F918F917F916F915F914F913F912F91F8
S11304401F910F91FF90EF90DF90CF90BF90AF90EE
S11304509F908F907F906F905F904F903F902F90E0
S11304601F900F900FBE0F90089581E008950F9292
S11304700FB6F8940F921F9211242F923F924F922D
S11304805F926F927F928F929F92AF92BF92CF9220
S1130490DF92EF92FF920F931F932F933F934F930B
S11304A05F936F937F938F939F93AF93BF93CF93F8
S11304B0DF93EF93FF93A091D506B091D6060DB6C6
S11304C00D920EB60D920E943B07A091D506B091F5
S11304D0D606CD91CDBFDD91DEBFFF91EF91DF91C7
S11304E0CF91BF91AF919F918F917F916F915F91C8
S11304F04F913F912F911F910F91FF90EF90DF90BB
S1130500CF90BF90AF909F908F907F906F905F90AF
S11305104F903F902F901F900F900FBE0F90089513
S11305201F920F920FB60F9211242F933F934F9364
S11305305F936F937F938F939F93AF93BF93EF9347
S1130540FF930E945605FF91EF91BF91AF919F9148
S11305508F917F916F915F914F913F912F910F9068
S11305600FBE0F901F901895AF92BF92CF92DF925B
S1130570EF92FF920F930E9499008FE08ABB9FEF46
S11305809BBB84BB8EEF85BBA12CB12CC12CD12C81
S11305900F2EFDEDEF2EF6E0FF2EF02D03E021E00F
S11305A030E044E650E062E670E088E193E00E94C7
S11305B0C9030F2EF9EDEF2EF6E0FF2EF02D01E02A
S11305C020E030E048EC50E06DE670E081E693E036
S11305D00E94C9030E941B0580E090E00F91FF90E8
S11305E0EF90DF90CF90BF90AF9008950E94DC0011
S11305F0409172065091730660E070E088E790E0E5
S11306000E94EF0008950E94DC0040E050E060E0AA
S113061070E080E890E00E94EF0084EF91E00E9497
S1130620E9060E94DC008AEF90E00E94E906089542
S11306300F931F93CF93DF9300D0CDB7DEB78C0118
S11306400E944C059A8389830130110541F511E01C
S11306506EE370E0CE0101960E949F060E94F602AE
S1130660809172069091730601968830910529F065
S1130670909373068093720604C0109273061092CE
S11306807206183141F40E94DC000E9403038AE0E0
S113069090E00E94E9061F5F1931D1F6FFCF80E098
S11306A090E00E94D2040F900F90DF91CF911F91A0
S11306B00F91089581B38FEF81BB85B5896685BDA0
S11306C008950E945A030E944C0513BC8AE083BD1E
S11306D084E183BD8EE183BD88E283BD8FEF83BD5A
S11306E02FE78AE196E0215080409040E1F700C076
S11306F000002BE930E007C083BD8A508B3FE1F74F
S11307002150310911F08FEFF7CF13BC13BC2FE741
S11307108AE196E0215080409040E1F700C000005B
S113072012BAFECFCF93DF93EC01E091D506F0919E
S1130730D6069383828380917C0690917D06C817A8
S1130740D90768F46091D5067091D6068091920617
S1130750909193066E5F7F4F0E94350117C06091A0
S1130760D5067091D60680919406909195066E5F99
S11307707F4F0E9435018091600090916100C817FD
S1130780D90720F4D0936100C0936000DF91CF912A
S113079008954F925F926F927F928F929F92AF9241
S11307A0BF92CF92DF92EF92FF920F931F93CF935A
S11307B0DF935C014B01EA01290181E290E00E9490
S11307C049003C01009709F4DBC0C114D10409F0CD
S11307D0D2C0CE010E944900F301908F878B00970D
S11307E021F4C3010E946F00CBC0AE0165EA70E042
S11307F00E94A7072197F3018789908DC80FD91FFD
S113080048E050E0B401C30149960E94AE07F301E9
S113081010A2102F053008F014E0F301168B6301C9
S1130820F2E0CF0ED11CC6010E940A01C3010C964E
S11308300E940A01F3017186608685E090E0811BC5
S1130840910995878487738A628AA201B501CE01D2
S11308500E949601F30191838083E114F10419F05D
S1130860F701718260820FB6F8940F9280917E0630
S11308708F5F80937E068091D5069091D606892B52
S1130880A1F57092D6066092D50680917E068130DD
S1130890D9F5C8EAD6E00F2EF5EDEF2EF6E0FF2EDF
S11308A0F02DCE010E94FC002996CE15DF05C9F774
S11308B08FE996E00E94FC0086E996E00E94FC0025
S11308C089E896E00E94FC0080E896E00E94FC0023
S11308D08FE996E0909395068093940686E996E0D6
S11308E090939306809392060FC0809179068111AC
S11308F00BC0E091D506F091D6068689081720F042
S11309007092D6066092D506F301868990917B0693
S1130910981710F480937B06909174069F5F9093D0
S1130920740690917A06981710F480937A0690E0F2
S11309309C01220F331F220F331F220F331F820FFC
S1130940931FB6018855994F0E940E010F900FBE58
S113095080917906882359F0E091D506F091D60666
S11309608689801730F40E94370281E00AC081E052
S113097008C081E006C0FC01D08EC78AC60135CF0D
S11309808FEFDF91CF911F910F91FF90EF90DF9048
S1130990CF90BF90AF909F908F907F906F905F901B
S11309A04F900895EF92FF920F931F93CF93DF938D
S11309B0EC010FB6F8940F928091D5069091D6066B
S11309C08C179D0711F0209739F4C091D506D0916A
S11309D0D606E12CF12C01C07E018E010E5F1F4F63
S11309E0C8010E9470018C899D89892B21F0CE0158
S11309F00C960E947001B80180E896E00E940E01F6
S1130A0080917F068F5F80937F06809174068F5F4D
S1130A10809374060F900FBE80917906882321F08D
S1130A20EF2811F40E943702DF91CF911F910F91AB
S1130A30FF90EF900895AF92BF92CF92DF92EF9222
S1130A40FF920F93A12CB12CC12CD12CE12CF12CB1
S1130A5000E020E030E045E550E06FE870E089E038
S1130A6097E00E94C903813049F4F8948093790691
S1130A7010927D0610927C060E9402020F91FF9054
S1130A80EF90DF90CF90BF90AF900895809178065B
S1130A908F5F8093780608950FB6F8940F92809133
S1130AA07C0690917D060F900FBE08950F931F93BF
S1130AB0CF93DF93809178068111B2C080917C0638
S1130AC090917D06019690937D0680937C0680919B
S1130AD07C0690917D06892B99F5809194069091DE
S1130AE095062091920630919306309395062093B3
S1130AF094069093930680939206809175068F5F77
S1130B0080937506E0919406F09195068081811199
S1130B1007C08FEF9FEF909361008093600010C037
S1130B20E0919406F09195060580F681E02D06800B
S1130B30F781E02D8281938190936100809360001E
S1130B4020917C0630917D06809160009091610037
S1130B502817390708F469C0E0919406F0919506C6
S1130B608081882399F0E0919406F09195060580A0
S1130B70F681E02DC681D7818A819B8120917C06F4
S1130B8030917D0628173907F8F419C08FEF9FEFCD
S1130B90909361008093600048C0E0919406F091C6
S1130BA095060580F681E02DC681D7818A819B81D7
S1130BB020917C0630917D062817390728F49093FC
S1130BC061008093600031C08E010E5F1F4FC80129
S1130BD00E9470018C899D89892B21F0CE010C968D
S1130BE00E9470018E8990917A06981710F4809370
S1130BF07A0690E09C01220F331F220F331F220F2D
S1130C00331F820F931FB8018855994F0E940E011C
S1130C10E0919406F091950680818111BECFB6CF04
S1130C20809177068F5F80937706DF91CF911F9134
S1130C300F910895CF92DF92EF92FF920F931F933B
S1130C40CF93DF930FB6F8940F928091780681507A
S1130C508093780680917806811163C080917E0626
S1130C60811132C061C0D7011596ED91FC911697A0
S1130C70C681D781CE010C960E9470018E010E5F51
S1130C801F4FC8010E9470018E8990917A069817AF
S1130C9010F480937A0690E09C01220F331F220FF8
S1130CA0331F220F331F820F931FB8018855994FAA
S1130CB00E940E01E091D506F091D6069E898689A0
S1130CC0981758F0DC2C09C0D12C0F2EF9E8EF2E20
S1130CD0F6E0FF2EF02DCC24C394F701808181111E
S1130CE0C2CF80917706882379F080917706882394
S1130CF059F00E94560580917706815080937706BB
S1130D00809177068111F5CFF1E0DF1621F0809113
S1130D107606813041F4109276060E94370281E013
S1130D2003C080E001C080E00F900FBEDF91CF913F
S1130D301F910F91FF90EF90DF90CF9008950F9344
S1130D401F93CF93DF938C01EB010E944605F801BA
S1130D5080819181C80FD91F20917C0630917D0636
S1130D602817390768F4C817D90750F580917C060D
S1130D7090917D06D183C0838C179D07B0F40BC07E
S1130D80C817D907C8F080917C0690917D068C170E
S1130D909D0790F015C08091D5069091D6060296D5
S1130DA00E947001CE010E9492030E941A068111D2
S1130DB00BC00E94370208C0F801D183C083EBCF77
S1130DC0F801D183C083F1CFDF91CF911F910F91AF
S1130DD00895CF93DF93EC01892BB1F00E9446056F
S1130DE080917C0690917D06C80FD91F8091D5060D
S1130DF09091D60602960E947001CE010E94920341
S1130E000E941A06811102C00E943702DF91CF911D
S1130E10089500E816E080917F06882349F10E9436
S1130E204605D801CC910E941A06CC2309F10FB6CD
S1130E30F8940F92D8011596ED91FC911697C681FE
S1130E40D781CE0102960E94700180917E06815066
S1130E5080937E0680917F06815080937F060F9059
S1130E600FBE8F89988D0E946F00CE010E946F0083
S1130E700E943702D0CF80917806811113C08091EF
S1130E807A0690E0FC01EE0FFF1FEE0FFF1FEE0F3E
S1130E90FF1F8E0F9F1FFC01E855F94F80818823A7
S1130EA029F01BC081E080937606089580917A062C
S1130EB0815080937A0680917A0690E0FC01EE0FCF
S1130EC0FF1FEE0FFF1FEE0FFF1F8E0F9F1FFC0172
S1130ED0E855F94F8081882349F380917A0690E0A0
S1130EE09C01220F331F220F331F220F331F280FA1
S1130EF0391FD901A855B94F1196ED91FC9112975C
S1130F000280F381E02D1296FC93EE931197255500
S1130F10394FE217F30729F422813381FD0132832B
S1130F202183FC01EE0FFF1FEE0FFF1FEE0FFF1FCB
S1130F308E0F9F1FFC01E855F94F0180F281E02DCF
S1130F40868197819093D6068093D5060895DC0117
S1130F5001C06D9341505040E0F70895FB01DC015E
S1130F604150504048F001900D920020C9F701C053
S1110F701D9241505040E0F70895F894FFCFD1
S1130F7EFFFF5461736B325F4E616D650054617394
S1130F8E6B315F4E616D650057656C636F6D650007
S1130F9E707265737320616E79206B6579200049D8
S1070FAE444C450066
S9030000FC
